
PLU                    OrderCode           Desc40                        DeptCode      GSTCode     CtnQty        Cost       Sell                 QOH
00000009351424000086               ASPERA F24 MOBILE PHONE                  6          *              1          69.72      79.00                0         
00000009780256785685               ASPERA F24 MOBILE PHONE                  6          *              1          69.72      79.00                0         
00000009326083026470               ISI RICHES OF ORIENT $4                  26         Z              50         500000     4.00                 0         
00000009326083079001               ISI CROSSWORD COASTAL $5                 26         Z              50         500000     5.00                 0         
00000009326083011377               ISI MOUCTACTHE CASH $1                   26         Z              200        0          1.00                 0         
00000009313006008453               REAL LIVING                              13         *              1          6.07       8.50                 0         
00000009332104001197               OZCALL $10 CALLING CARD                  17         Z              1          9.6        10.00                0         
00000009332104001203               OZCALL $20 CALLING CARD                  17         Z              1          19.2       20.00                0         
00000009321670011310               ZERO-IN-EAR HDPHN - PRPL                 6          *              1          6.36       10.99                0         
00000009321670001489               CAR CHRG DUAL USB+CHRG&SYNC CBL - LGHTNG 6          *              1          23.98      39.99                0         
00000009321670001496               CAR CHRG DUAL USB+CHRG&SYNC CBL - MICRO  6          *              1          14.18      24.99                0         
00000009321670001403               CAR CHRG - LGHTNG                        6          *              1          19.69      29.99                0         
00000009321670001465               CAR CHRG - MICRO USB                     6          *              1          9.89       19.99                0         
00000009321670001588               CHRG&SYNC CBL - MICRO USB - RED/BLK      6          *              1          7.48       14.99                0         
00000009321670001571               CHRG&SYNC CBL - MICRO USB - BLK/WHI      6          *              1          7.48       14.99                0         
00000009321670001632               PRM POWERBANK 4400MAH - BLK              6          *              1          17.98      29.99                0         
00000009321670012935               THONG MALE CLSC PRNT                     6          *              1          8.72       16.99                0         
00000009335214008391               IGEAR SCR PRTCT-TMPRD GLASS-IPH6+-BLK    6          *              1          4.78       10.00                0         
00000009335214008254               IGEAR CBL CHRG SPC-L SHAPE BLK-IPH       6          *              1          6.65       15.00                0         
00000009335214008308               IGEAR AUDIO CBL-PRM-FLX BND-BLK          6          *              1          5.23       10.00                0         
00000009335214008667               IGEAR EARPH+MIC&VOL CTRL-METALC PNK      6          *              1          10.11      20.00                1         
00000009351424000017               ASPERA F26 BLACK  MOBILE PHONE           6          *              1          51.91      59.00                0         
00000009351424000093               ASPERA F26 BLACK  MOBILE PHONE           6          *              1          51.91      59.00                0         
00000009326083071753               ISI YEAR OF THE ROOSTAR $2               26         Z              100        0          2.00                 0         
00000000000000013219               ISI 250 GRAND $15                        26         Z              10         0          15.00                0         
00000009326083024117               ISI 250 GRAND $10                        26         Z              20         500000     10.00                0         
00000009326083078530               ISI LIVE THE LIFE SAILING $5             26         Z              50         230        5.00                 0         
00000009771038874314               THE DAILY TELEGRAPH (CNTRY) - WED        13         *              1          0.89       1.50                 0         
00000009771038874512               THE DAILY TELEGRAPH (CNTRY) - FRI        13         *              1          0.89       1.50                 0         
00000009341064000126               FLOWERS LARGE                            6          *              1          12         40.00                0         
00000009332957000668               FLOWERS LARGE                            6          *              1          12         40.00                0         
00000009321211022003               BAIT - SQUID 200GM                       6          *              20         58.29      4.95                 0         
00000009312763000045               BAIT - SQUID 200GM                       6          *              20         58.29      4.95                 0         
00000000076840001590               BNJ CHOC CHIP COOK DOUGH PINT SLICE 90ML 15         *              18         48.9       5.00                 18        
00000000076840001149               BNJ CHOC MALT SHAKE 458ML                15         *              8          63.61      12.90                0         
00000009327303135095               TOOLPRO WORK LIGHT PEN COB               6          *              1          2.92       6.00                 0         
00000000000000021187               N/OWL POD HOT DRINK SMALL 8OZ            16         *              1          1.25       1.00                 0         
00000000735850316550               Y/FDZ CHICKEN CAESAR S/WICH              2          *              1          4.9        6.95                 0         
00000000735850316567               Y/FDZ ROAST BEEF MUSTARD PICKLE  S/WICH  2          *              1          4.9        6.95                 0         
00000000735850166308               W/WHIP PROTEIN I/CRM SALT CARAMEL 200ML  15         *              12         41.75      5.00                 0         
00000000735850166322               W/WHIP PROTEIN I/CRM COCONUT MANGO 200ML 15         *              12         41.75      5.00                 0         
00000000076840001729               BNJ MOOPHORIA CHOC COOKIE AFFAIR 458ML   15         *              8          63.61      12.95                5         
00000009326083037582               ISI BANK VAULT $5                        26         Z              50         230        5.00                 0         
00000009326083074136               ISI HIT IT BIG $10                       26         Z              30         276        10.00                0         
00000008888490000050               QUEST PROTEIN BAR COOKIES & CRM 60GM     18         *              12         35.65      4.95                 12        
00000000888849000050               QUEST PROTEIN BAR COOKIES & CRM 60GM     18         *              12         35.65      4.95                 12        
00000000000007826900               A&W DIET CREAM SODA   355ML              11         *              12         14.52      1794617038250220500000.00 0         
00000009300624031666               MT/FRANK KIDS APPLE 250ML                11         *              24         23.55      931816395169146560000000000.00 0         
00000000000093624053               CASCADE SODA WATER   330ML               11         *              24         49.31      3155411050120119100000.00 0         
00000009326083030538               ISI TREAT YO SELF $1                     26         Z              200        200        1.00                 0         
00000009326083070558               ISI LUCK OF THE IRISH $1                 26         Z              200        200        1.00                 0         
00000009335214009701               IGEAR BT EARPH SPORT MIC VOL BLACK       6          *              1          13.14      25.00                0         
00000009369999312220               COCO COAST NATURAL WTR 500ML             11         Z              24         46.59      2879791034400021400000.00 70        
00000009317493001348               OPTUS HUAWEI 4G Y311                     6          *              1          153.94     50.00                0         
00000008999999500696               CORNETTO GOLDEN GAYTIME 110ML            15         *              24         47.54      3.90                 0         
00000009326227188859               TRIO JETLIGHTER                          7          *              24         132        9.95                 0         
00000000722252101204               CLIFF BAR PEANUT BUTTER 68GM             18         *              12         500000     3.95                 14        
00000000000000011462               GOVIA - ACCOUNT TOP-UP $15               26         Z              1          500000     15.00                0         
00000009369999072278               COCO COAST CNUT & PASH FRUIT WTR 500ML   11         Z              24         46.59      2879791034400021400000.00 31        
00000009369999316495               COCO COAST CNUT & PASH FRUIT WTR 500ML   11         Z              24         46.59      2879791034400021400000.00 31        
00000009331191000465               SPINACH LEAVES  P/PK 100GM               4          Z              1          11.39      4.00                 -3        
00000009329878002239               SPINACH LEAVES  P/PK 100GM               4          Z              1          11.39      4.00                 -3        
00000009336137000028               SPINACH LEAVES  P/PK 100GM               4          Z              1          11.39      4.00                 -3        
00000000000000200999               SPINACH LEAVES  P/PK 100GM               4          Z              1          11.39      4.00                 -3        
00000000000726703494               SPINACH LEAVES  P/PK 100GM               4          Z              1          11.39      4.00                 -3        
00000000000000012714               GOVIA - ACCOUNT TOP-UP $10               26         Z              1          0          10.00                0         
00000000000000012715               GOVIA - ACCOUNT TOP-UP $20               26         Z              1          0          20.00                0         
00000000000000012716               GOVIA - ACCOUNT TOP-UP $30               26         Z              1          0          30.00                0         
00000009335214008247               IGEAR CBL CHRG SPC-L SHAPE WHT-IPH       6          *              1          6.65       15.00                0         
00000009335214008773               IGEAR BLTH STEREO HDSET-BLK              6          *              1          10.51      20.00                0         
00000009321670003063               FUSE BLUTOOTH SPKR                       6          *              1          18.7       29.99                0         
00000009321670001762               AERIAL HAT KIDS TAG                      6          *              1          6.23       9.95                 0         
00000009321670002578               CHRG&SYNC CBL - LGHTNG - ORG/BLK         6          *              1          15.02      24.99                0         
00000009321670002912               ULTRATHIN 2 IN 1 POWERBANK               6          *              1          13.64      19.99                0         
00000009321670015127               AERIAL SUNGLASSES POLARISED              6          *              1          13.59      29.95                0         
00000009321670015134               AERIAL SUNGLASSES POLARISED              6          *              1          13.59      29.95                0         
00000009321670015141               AERIAL SUNGLASSES POLARISED              6          *              1          13.59      29.95                0         
00000009321670015158               AERIAL SUNGLASSES POLARISED              6          *              1          13.59      29.95                0         
00000009321670015165               AERIAL SUNGLASSES POLARISED              6          *              1          13.59      29.95                0         
00000009321670015172               AERIAL SUNGLASSES POLARISED              6          *              1          13.59      29.95                0         
00000009321670015189               AERIAL SUNGLASSES POLARISED              6          *              1          13.59      29.95                0         
00000009321670000048               AERIAL SUNGLASSES POLARISED              6          *              1          13.59      29.95                0         
00000009321670002776               AERIAL RIDERS S/GLS                      6          *              1          15.56      34.95                1         
00000009321670012980               THONG FEMALE FOAMY                       6          *              1          8.72       15.00                0         
00000009335214008568               IGEAR CBL/CHRG-WHT-BRD FX/LTHR-MCRO USB  6          *              1          7.09       15.00                0         
00000009335214008575               IGEAR CBL/CHRG-BLK-BRD FX/LTHR-MCRO USB  6          *              1          7.09       15.00                0         
00000009335214008582               IGEAR CBL/CHRG-RED-BRD FX/LTHR-MCRO USB  6          *              1          7.09       15.00                0         
00000009335214008476               IGEAR SCR PRTCT-TMPRD GLASS-IPH7+-BLK    6          *              1          5.11       10.00                0         
00000009335214008360               IGEAR SCR PRTCT-TMPRD GLASS-IPH6-WHT     6          *              1          4.67       10.00                0         
00000009313006001201               BELLE MAGAZINE                           13         *              1          7.82       10.99                0         
00000009313006000259               BELLE MAGAZINE                           13         *              1          7.82       10.99                0         
00000009313006025399               BELLE MAGAZINE                           13         *              1          7.82       10.99                0         
00000009322248001320               ALL NATURAL HONEY OAT SLICE BANANA 100G  18         Z              1          1.9        3.95                 0         
00000009337694002265               KURABY SINGLE 2                          26         Z              1          2.81       0.00                 0         
00000009771449779000               FRANKIE                                  13         *              1          7.82       10.95                0         
00000009771449779017               FRANKIE                                  13         *              1          7.82       10.95                0         
00000009771449779024               FRANKIE                                  13         *              1          7.82       10.95                0         
00000009326083011391               ISI MONEY TREE $1                        26         Z              200        0          1.00                 0         
00000009326083071760               ISI BBQ BONANZA $2                       26         Z              100        500000     2.00                 0         
00000009316423036412               BOOST RECHARGE VOUCHER $50               17         Z              1          48         50.00                0         
00000009332967000279               MOTHERS DAY FLOWERS                      6          Z              1          12.94      19.99                0         
00000009332957003662               MOTHERS DAY FLOWERS                      6          Z              1          12.94      19.99                0         
00000009341064000416               MOTHERS DAY FLOWERS                      6          Z              1          12.94      19.99                0         
00000009313820001081               MOUNTAIN DEW KS ORNGCTRUS 355ML          11         *              24         36.63      2263663983953602200000.00 0         
00000009326083074112               ISI PLATINUM PAYOUT $10                  26         Z              30         276        10.00                0         
00000009313671001315               THONG RUBBER       TRB-8R 29CM           6          *              12         41.9       6.70                 0         
00000000000000021712               TIGER FLAV SUGAR SYRUP SACHETS           16         *              1          0.49       0.01                 0         
00000009335214009312               IGEAR USB FLASH DRIVE 16GB               6          *              1          8.25       15.00                0         
00000009335214009329               IGEAR BLUETOOTH SPEAKER MOBIEGEAR        6          *              1          13.75      30.00                0         
00000019313715060022               PACE FARM EGGS CAGE 12PK 600GM           2          Z              15         38         3.00                 0         
00000005011987861572               NAUTILUS PREM OUTBOARD_6 1LT             6          *              6          41.65      13.00                0         
00000000797776140633               Y/KARMA COCONUT CHICK CURRY & RICE 360G  2          *              6          32.4       8.50                 0         
00000000735850000602               Y/KARMA CHICK TIKKA MASALA & QUINOA 360G 2          *              6          32.4       8.50                 0         
00000009347043001610               DRUMSTICK BOYSENBERRY 119ML              15         *              24         58.29      4.20                 24        
00000009326083070589               ISI CACTUS CASH  $1                      26         Z              200        182        1.00                 0         
00000009326227152829               ALUMINIUM CREAM WHIPPER                  6          Z              20         105.55     12.95                22        
00000009354849000075               Y/FDZ PROTEIN CHOC CHIP COOKIE 60GM      18         *              12         29.54      3.95                 12        
00000009310625012113               SUNNYQUEEN EGGS CAGE FREE RNG 12PK 600GM 2          Z              1          4.26       6.50                 0         
00000009335214008193               IGEAR CHRGR WALL DUAL USB AQU IPH        6          *              1          13.03      0.00                 1         
00000009335214008209               IGEAR CHRGR WALL DUAL USB BLU IPH        6          *              1          13.03      25.00                1         
00000009354849000969               Y/FDZ KOMBUCHA LEMON & GINGER 300ML      2          Z              8          25.73      4.95                 0         
00000009354849000952               Y/FDZ KOMBUCHA PASSIONFRUIT 300ML        2          Z              8          25.73      4.95                 0         
00000009326083036325               ISI PEPPERMINT BINGO $4                  26         Z              50         184        4.00                 0         
00000000072600009172               HERRS JALAPENO CURLS POPPERS198GM        18         *              1          4.17       7.90                 0         
00000000072600071193               HERRS DEEP DISH PIZZA 198GM              18         *              1          4.17       7.90                 0         
00000009354849001133               Y/FDZ CLASSIC EGG & MAYO WRAP 155G       2          *              1          6.3        8.95                 0         
00000009335214009374               IGEAR EARPHONE WITH CHARGING CASE WHITE  6          *              1          14.94      30.00                0         
00000009317495101183               OPTUS $10 VOICE SIM                      6          *              5          0          10.00                0         
00000000007675022366               OPTUS $10 VOICE SIM                      6          *              5          0          10.00                0         
00000009321670014366               CHRG&SYNC CBL - LGHTNG - WHT             6          *              1          15.02      24.99                0         
00000009326227191828               FLUORO DOUBLE JET 35/350                 7          *              35         113.58     7.95                 0         
00000009343762147288               SCA VERAO BEACH CRICKET SET              6          *              1          108.84     29.99                0         
00000009343762147240               SCA VERAO SOFT FLYING DISC               6          *              1          29.5       29.99                0         
00000009321670015783               FUSE TRUE WIRELESS BLUETOOTH EAR BUDS    6          *              1          22.54      9.99                 0         
00000009326227205273               TRIO E-JUICE MIX PACK 60ML               7          *              24         262.79     25.00                0         
00000009326227205365               TRIO E-JUICE MIX PACK 60ML               7          *              24         262.79     25.00                0         
00000009326227205372               TRIO E-JUICE MIX PACK 60ML               7          *              24         262.79     25.00                0         
00000009326227205389               TRIO E-JUICE MIX PACK 60ML               7          *              24         262.79     25.00                0         
00000009326227205396               TRIO E-JUICE MIX PACK 60ML               7          *              24         262.79     25.00                0         
00000009326227205402               TRIO E-JUICE MIX PACK 60ML               7          *              24         262.79     25.00                0         
00000009326227205419               TRIO E-JUICE MIX PACK 60ML               7          *              24         262.79     25.00                0         
00000009326227205426               TRIO E-JUICE MIX PACK 60ML               7          *              24         262.79     25.00                0         
00000009326227205433               TRIO E-JUICE MIX PACK 60ML               7          *              24         262.79     25.00                0         
00000009326227205440               TRIO E-JUICE MIX PACK 60ML               7          *              24         262.79     25.00                0         
00000009326227206577               TRIO E-JUICE MIX PACK 60ML               7          *              24         262.79     25.00                0         
00000000076840002665               BNJ ND NETFLIX & CHILLED 458ML           15         *              8          69.43      12.95                0         
00000009354849000983               Y/FDZ PROTEIN BITES CHOC/COCONUT  80GM   18         *              12         41.79      4.95                 11        
00000009315596007595               COOL RIDGE SPK/WTR LEM LIME  375ML       11         *              24         33         2039337012501999000000.00 0         
00000009315596007571               COOL RIDGE SPK/WTR NAT  375ML            11         *              24         33         2039337012501999000000.00 31        
00000009338924007944               EDE CHICKEN CHEESE & MAYO HLF S/WICH     9          *              30         46.27      2.50                 14        
00000009338924007951               EDE HAM & CHEESE HLF S/WICH              9          *              30         46.27      2.50                 15        
00000009353333000638               MYMSC CHIPOTLE CHKN BRT BWL 450GM        2          *              1          7.5        10.95                3         
00000009353333001376               MYMSC FAL/CHKPEA & COUS&TAHN SCE 330GM   2          *              1          7.5        10.95                0         
00000009347043001993               MAXIBON DARE LP24 155ML                  15         *              24         63.13      4.60                 0         
00000000000000030142               THE AUSTRALIAN - SAT                     13         *              1          2.33       3.80                 0         
00000009329000008047               JCS SYD P/CRN CRML CRN    200GM          18         *              18         1.84       3.95                 0         
00000009329000007996               JCS SYD P/CRN CRML CRN    200GM          18         *              18         1.84       3.95                 0         
00000009354107000014               F/O VEGAN SPICY BEAN BURRITO 350GM       2          *              5          34.4       9.95                 0         
00000009346473008107               F/O VEGAN SPICY BEAN BURRITO 350GM       2          *              5          34.4       9.95                 0         
00000009346473008015               F/O BEEF CHILLI CON CARNE 350GM          2          *              5          34.4       9.95                 0         
00000009354107000021               F/O BEEF CHILLI CON CARNE 350GM          2          *              5          34.4       9.95                 0         
00000009354107000038               F/O BEEF NAPOLI MEATBALLS 350GM          2          *              5          34.4       9.95                 0         
00000009346473008022               F/O BEEF NAPOLI MEATBALLS 350GM          2          *              5          34.4       9.95                 0         
00000009347043001658               MINI DRUMSTICK VANILLA 50GM              15         *              32         44.34      2.00                 4         
00000000735850315805               Y/FDZ SALT & VINEGAR POPCORN 30GM        18         *              6          16.67      3.95                 0         
00000009311192589725               TOOTHPICKS 3 PACK                        6          *              1          2          4.95                 0         
00000009324520004630               PHONE CARD GO TALK RECHARGE $39          17         Z              1          37.43      39.00                0         
00000000076840001859               BNJ NON DAIRY CINNAMON BUNS 458ML        15         *              8          63.61      12.95                0         
00000009300830049523               BLUE RIBBON 372CAL COOKIES & CREAM 460ML 15         *              8          36.04      8.00                 0         
00000009300830045112               BLUE RIBBON 316CAL CREAMY CHOC 460ML     15         *              8          36.04      8.00                 0         
00000009415767012783               V ENERGY DRINK SUM JAM   350ML           11         *              24         59.59      3682548942254534300000.00 0         
00000009350271000546               REM KOMBUCHA PEACH    330ML              11         *              12         27.85      3442154112494891700000.00 0         
00000009326083075539               ISI MONOPOLY $5                          26         Z              50         230        5.00                 0         
00000009326083071944               ISI PEARLY RICHES  $2                    26         Z              100        184        2.00                 0         
00000009326083078547               ISI LIVE THE LIFE NORTHERN $5            26         Z              50         230        5.00                 0         
00000009326083079117               ISI CROSSWORDS FOREST $5                 26         Z              50         230        5.00                 0         
00000000000000021715               TIGER COFFEE CUP 8OZ                     16         *              1000       115.5      0.01                 3000      
00000000000000021716               TIGER COFFEE CUP 12OZ                    16         *              1000       133.1      0.01                 3000      
00000000000000021717               TIGER COFFEE CUP 16OZ                    16         *              1000       145.19     0.01                 1000      
00000000000000021719               SCA CABLE TIES 200X4.8MM BLUE PK25       6          *              1          2.22       6.50                 0         
00000009335214009299               IGEAR CABLE HD BRAID IPHONE X 1.2M BLACK 6          *              1          8.68       20.00                2         
00000005011987047143               HELIX ULT ECT C3 5W30 1L                 6          *              12         167.69     24.50                0         
00000000793591168159               Y/FDZ TURKEY ROAST & POTATO BAKE 295G    2          *              1          7          9.95                 0         
00000009354849000624               Y/FDZ TURKEY ROAST & POTATO BAKE 295G    2          *              1          7          9.95                 0         
00000000793591168142               Y/FDZ STICKY BBQ M/BALLS CREAM POT 270G  2          *              1          7          9.95                 0         
00000009335214009657               IGEAR EARPH+MIC BLACK/SILVER             6          *              1          5.01       10.00                0         
00000009335214009695               IGEAR EARPHONE SPORTS WITH MIC BLK/GREY  6          *              1          5.01       10.00                0         
00000005011987008182               ADVANCE 4T AX7 10W40_12 1LT              6          *              12         129.32     20.00                0         
00000005011987861497               ADVANCE 4T AX7 10W40_12 1LT              6          *              12         129.32     20.00                0         
00000009317454764640               BLIND BAGS PIXAR OOSHIES                 6          *              1          2.59       5.00                 0         
00000000886144770487               BLIND BAGS DISNEY JUNIOR                 6          *              1          3.29       5.00                 0         
00000000886144930393               BLIND BAGS DISNEY JUNIOR                 6          *              1          3.29       5.00                 0         
00000000630996571194               CUTIES CARS S2 ASSORTED                  6          *              1          5.9        6.00                 0         
00000009354849000303               Y/FDZ SWEET & SOUR PORK WITH RICE 275G   2          *              1          7          9.95                 0         
00000009354849000310               Y/FDZ THAI FISH CURRY & C/NUT RICE 275G  2          *              1          7          9.95                 0         
00000009354849000327               Y/FDZ SOUTHWEST CHICKEN PIZZA 190G       2          *              1          7          9.95                 0         
00000009354849000334               Y/FDZ BALINESE VEG CURRY 255G            2          *              1          7          9.95                 0         
00000009770312632039               THE WEST AUSTRALIAN - WED                13         *              1          1.52       1.70                 0         
00000009770312632046               THE WEST AUSTRALIAN - THURS              13         *              1          1.52       1.70                 0         
00000009770312632053               THE WEST AUSTRALIAN - FRIDAY             13         *              1          1.52       1.70                 0         
00000009335214009336               IGEAR USB-C 3.0 BLK 2M                   6          *              1          10.52      20.00                0         
00000009335214009343               IGEAR CBL BRAIDED 1.2M MICRO USB         6          *              1          7.5        15.00                0         
00000000000000022807               FCB SYRUP REFRESH ORANGE BIB 5LTR        14         *              1          63.74      100.00               0         
00000009320283000032               BLUEBERRIES 125GM                        4          Z              1          1          4.95                 3         
00000009320801000247               BLUEBERRIES 125GM                        4          Z              1          1          4.95                 3         
00000009320801000452               BLUEBERRIES 125GM                        4          Z              1          1          4.95                 3         
00000009421900997626               BLUEBERRIES 125GM                        4          Z              1          1          4.95                 3         
00000009418243881255               BLUEBERRIES 125GM                        4          Z              1          1          4.95                 3         
00000009335089001114               BLUEBERRIES 125GM                        4          Z              1          1          4.95                 3         
00000009334729000913               RTG PROTEIN DRINK VANILLA I/CRM 375ML    11         *              6          1          4914183798198609400000.00 0         
00000009321670010535               ARIEL CAP BEANIE                         6          *              1          500000     12.95                0         
00000009332104025094               PLAYSTATION NETWORK CARD $30             26         Z              1          28.79      30.00                0         
00000009337694004320               PLAYSTATION NETWORK CARD $30             26         Z              1          28.79      30.00                0         
00000009337694021099               PLAYSTATION NETWORK CARD $30             26         Z              1          28.79      30.00                0         
00000009337694004337               PLAYSTATION NETWORK CARD $50             26         Z              1          48         50.00                0         
00000009332104025100               PLAYSTATION NETWORK CARD $50             26         Z              1          48         50.00                0         
00000009337694012677               XBOX POINTS CARD $15.00                  26         Z              1          500000     15.00                0         
00000009326083078509               ISI LIVE THE LIFE BLACK $5               26         Z              50         0          5.00                 0         
00000093216083028542               ISI LIVE THE LIFE BLACK $5               26         Z              50         0          5.00                 0         
00000009326083027569               ISI LIVE THE LIFE BLACK $5               26         Z              50         0          5.00                 0         
00000009326083028535               ISI LIVE THE LIFE BLACK $5               26         Z              50         0          5.00                 0         
00000009326083028542               ISI LIVE THE LIFE BLACK $5               26         Z              50         0          5.00                 0         
00000009326083028559               ISI LIVE THE LIFE BLACK $5               26         Z              50         0          5.00                 0         
00000009339147040626               DRIVERS LICENCE PLATES P RED/GRN REV     6          *              1          2.25       4.99                 0         
00000009339147040633               DRIVERS LICENCE PLATES P RED/GRN REV     6          *              1          2.25       4.99                 0         
00000009339147040640               DRIVERS LICENCE PLATES P RED/GRN REV     6          *              1          2.25       4.99                 0         
00000009339147040657               DRIVERS LICENCE PLATES P RED/GRN REV     6          *              1          2.25       4.99                 0         
00000009339147040664               DRIVERS LICENCE PLATES P RED/GRN REV     6          *              1          2.25       4.99                 0         
00000009316423024112               BOOST MOBILE  START KIT $2               6          Z              1          0          2.00                 -1        
00000009316423039451               BOOST MOBILE  START KIT $2               6          Z              1          0          2.00                 -1        
00000006438431976382               TITAN BAR CHOC PEANUT 80GM               18         *              12         0          5.60                 0         
00000000643843196990               TITAN BAR CHOC PEANUT 80GM               18         *              12         0          5.60                 0         
00000000643843197638               TITAN BAR CHOC PEANUT 80GM               18         *              12         0          5.60                 0         
00000009329000006234               JCS PRETZEL KNOTS ECO    250GM           18         *              10         28.39      5.50                 0         
00000000000000010000               ISI CHRISTMAS COUNTDOWN $10              26         Z              20         500000     10.00                0         
00000009326083025008               ISI CHRISTMAS COUNTDOWN $10              26         Z              20         500000     10.00                0         
00000009326083025022               ISI CHRISTMAS COUNTDOWN $10              26         Z              20         500000     10.00                0         
00000009326083035007               ISI CHRISTMAS COUNTDOWN $10              26         Z              20         500000     10.00                0         
00000093130809087791               ISI CHRISTMAS COUNTDOWN $10              26         Z              20         500000     10.00                0         
00000009326083011162               ISI MERRY SURPRISE $1                    26         Z              200        500000     1.00                 0         
00000009326083076277               ISI BULLFROG BINGO $4                    26         Z              50         184        4.00                 0         
00000009326083026364               ISI BULLFROG BINGO $4                    26         Z              50         184        4.00                 0         
00000009326083026302               ISI BULLFROG BINGO $4                    26         Z              50         184        4.00                 0         
00000009334729000920               RTG PROTEIN DRINK ICE COFFEE 375ML       11         *              6          1          4812834792184263700000.00 0         
00000009333304007606               VODAFONE SIM $2                          6          *              1          0          2.00                 0         
00000009333304008948               VODAFONE SIM $2                          6          *              1          0          2.00                 0         
00000009333304009075               VODAFONE SIM $2                          6          *              1          0          2.00                 0         
00000009333304005633               VODAFONE SIM $2                          6          *              1          0          2.00                 0         
00000009333304005350               VODAFONE SIM $2                          6          *              1          0          2.00                 0         
00000009333304002380               VODAFONE SIM $2                          6          *              1          0          2.00                 0         
00000009333304002298               VODAFONE SIM $2                          6          *              1          0          2.00                 0         
00000009333304001666               VODAFONE SIM $2                          6          *              1          0          2.00                 0         
00000000076750189555               VODAFONE SIM $2                          6          *              1          0          2.00                 0         
00000009316423024587               TELSTRA PRE-PAID DATA STARTER KIT        6          *              1          17.5       2.00                 0         
00000009335214006724               IGEAR CBL CHRG SPC-3M-WHT-IPH            6          *              1          8.5        20.00                0         
00000009335214002108               IGEAR CBL CHRG SPC-1M-WHT-MCRO USB       6          *              1          2.58       5.00                 0         
00000009335214001804               IGEAR CBL AUTO USB+CBL-SLCN-BLK-IPH5/6   6          *              1          500000     30.00                0         
00000009335214004898               IGEAR EARPH METALC+MIC-SLV               6          *              1          5.11       10.00                0         
00000009335214004904               IGEAR EARPH METALC+MIC-RED               6          *              1          5.11       10.00                0         
00000009335214004911               IGEAR EARPH METALC+MIC-BLK               6          *              1          5.11       10.00                0         
00000009335214007332               IGEAR EARPH MIC&VOL CTRL-EURO STY-WHT    6          *              1          5.23       10.00                3         
00000009335214007677               IGEAR CBL AUDIO FLAT PK2                 6          *              1          7.15       15.00                0         
00000009317948008267               BLUEBERRIES 125GM                        4          Z              1          1          4.95                 3         
00000009317948003941               BLUEBERRIES 125GM                        4          Z              1          1          4.95                 3         
00000009317832000315               BLUEBERRIES 125GM                        4          Z              1          1          4.95                 3         
00000009348835000057               BLUEBERRIES 125GM                        4          Z              1          1          4.95                 3         
00000009348835000064               BLUEBERRIES 125GM                        4          Z              1          1          4.95                 3         
00000009342373000074               BLUEBERRIES 125GM                        4          Z              1          1          4.95                 3         
00000000000093541237               BLUEBERRIES 125GM                        4          Z              1          1          4.95                 3         
00000000000093536240               BLUEBERRIES 125GM                        4          Z              1          1          4.95                 3         
00000009335214009398               IGEAR CHARGR 240V USB TRAVEL 5PC WHT     6          *              1          15.61      30.00                0         
00000009335214000111               IGEAR USB FLASH DRIVE 32GB               6          *              1          10.32      20.00                0         
00000009335214000043               IGEAR SD CARD 32GB + ADAPTOR             6          *              1          10.32      30.00                0         
00000009335214009367               IGEAR POWER BANK 10000MAH WHT            6          *              1          15.77      30.00                0         
00000009335214009404               IGEAR POWER BANK 5000MAH WHT             6          *              1          9.56       20.00                0         
00000009326227208519               TRIO FLORA FINISH MINI BLOW TORCH        6          *              20         64.9       8.95                 0         
00000008714100638552               BNJ BIRTHDAY CAKE LIMITED EDITION 500ML  15         *              8          69.43      12.95                0         
00000009312763000359               BAIT - MULIES 2KG                        6          *              8          65.55      14.95                0         
00000009312763000052               BAIT - BLUE 200GM                        6          *              20         78.09      7.50                 0         
00000009347043001962               CADBURY CHERRY RIPE I/CRM 90ML           15         *              20         48.02      4.40                 15        
00000009313684229959               ULTRA PROTECT S/SCRN S/TCH 100ML         50         *              12         53.68      8.90                 0         
00000009300830054244               STR GAYTIME KSPY KREME 105ML             15         *              20         49.74      4.50                 11        
00000000076840002481               BNJ ND CHOC CRML CLSTR 458ML             15         *              8          69.43      12.95                6         
00000000076840002474               BNJ ND CHOC CHP CK/DOUGH 458ML           15         *              8          69.43      12.95                15        
00000000000000023502               N/OWL FRESH FRUIT TUB WATERMELON EA      4          Z              1          2          4.00                 15        
00000009335214009428               IGEAR EARPHONE 8PIN & MIC/VOL CTRL       6          *              1          9.56       20.00                6         
00000006933192480739               IGEAR BATTERY AA                         6          *              24         30         2.50                 0         
00000000069331928079               IGEAR BATTERY AA                         6          *              24         30         2.50                 0         
00000009326083010585               ISI 3 OF A KIND $2                       26         Z              100        184        2.00                 0         
00000009326083074211               ISI CASH CELEBRATION $10                 26         Z              30         276        10.00                0         
00000009300662884569               BROWNES YOGHURT STRAWBERRY               2          Z              1          1.32       2.80                 0         
00000009300662884620               BROWNES YOGHURT VANILLA                  2          Z              1          1.32       2.80                 0         
00000009300662884507               BROWNES YOGHURT VANILLA                  2          Z              1          1.32       2.80                 0         
00000009344286003005               AMAYSIM $100                             17         Z              1          96         100.00               0         
00000000000000025793               STAMPS $0.50                             26         Z              1          0.46       0.50                 0         
00000009312650640071               STAMPS $0.70                             26         Z              1          0.64       0.70                 0         
00000000000009771086               THE AUSTRALIAN (MON - FRI)               13         *              1          152        3.00                 0         
00000000000007000508               FCB CUPS 490ML                           14         *              1000       114.51     0.20                 899       
00000000000000957188               FCB CUPS 490ML                           14         *              1000       114.51     0.20                 899       
00000000000000029407               FCB DOME LIDS 1000ML                     14         *              500        104.91     0.13                 325       
00000000000000029431               FCB SYRUP SOUR APPLE BIB 5LTR            14         *              1          66.94      41.85                0         
00000000000000029958               FCB SYRUP BIB 15L                        14         *              1          182        303.30               0         
00000009332104022420               GOCARD TOP UP $200                       26         Z              1          192        200.00               0         
00000000076840335695               BNJ STRAWBERRY CHEESECAKE 120ML          15         *              12         34.31      4.70                 4         
00000001126007772001               ISI BEACH BUCKS $1                       26         Z              200        500000     1.00                 0         
00000009326083011087               ISI BEACH BUCKS $1                       26         Z              200        500000     1.00                 0         
00000009326083011261               ISI BEACH BUCKS $1                       26         Z              200        500000     1.00                 0         
00000009326083010424               ISI LUCK OF THE IRISH $2                 26         Z              100        184        2.00                 0         
00000009326083071784               ISI LUCK OF THE IRISH $2                 26         Z              100        184        2.00                 0         
00000009334708000958               EMMA & TOMS CACAO & COCONUT 35G          18         *              12         33.59      2.00                 0         
00000009326083024506               ISI ONE MILLION PRESTIGE $15             26         Z              10         500000     15.00                0         
00000009326083024520               ISI ONE MILLION PRESTIGE $15             26         Z              10         500000     15.00                0         
00000009326083027552               ISI SCRATCH ME HAPPY $5                  26         Z              50         230        5.00                 0         
00000009326083027590               ISI SCRATCH ME HAPPY $5                  26         Z              50         230        5.00                 0         
00000009326083027675               ISI SCRATCH ME HAPPY $5                  26         Z              50         230        5.00                 0         
00000009326083027637               ISI SCRATCH ME HAPPY $5                  26         Z              50         230        5.00                 0         
00000009316423024235               TELSTRA PRE-PAID $200                    17         Z              1          192        200.00               0         
00000004712523800079               MOSA CREAM CHARGERS 10S N20              6          Z              36         500000     14.25                51        
00000009326083071852               ISI LUCKY SWEEP $2                       26         Z              100        500000     2.00                 0         
00000000932608302283               ISI LUCKY SWEEP $2                       26         Z              100        500000     2.00                 0         
00000009326083022083               ISI LUCKY SWEEP $2                       26         Z              100        500000     2.00                 0         
00000009326083037506               ISI CHRISTMAS SURPRISE $5                26         Z              50         0          5.00                 0         
00000000000093549080               CASCADE RSPBRY& MNT&GNGR     330ML       11         *              24         49.31      3352545990709100900000.00 0         
00000000000000201552               DAIRY FARMERS FETTA COWS MILK 150ML      2          Z              24         11.69      0.00                 0         
00000009310199100087               DAIRY FARMERS FETTA COWS MILK 150ML      2          Z              24         11.69      0.00                 0         
00000000722252101600               CLIFF BAR CHOC ALMOND    68GM            18         *              12         0          3.95                 0         
00000009326083036257               ISI GINGERBREAD BINGO $4                 26         Z              50         0          4.00                 0         
00000009326083076253               ISI GINGERBREAD BINGO $4                 26         Z              50         0          4.00                 0         
00000000000000011245               GOVIA - ACCOUNT TOP-UP $5                26         Z              1          500000     5.00                 0         
00000009347043001634               DRUMSTICK MESSINA MANGO COCONUT 119ML    15         *              16         47.56      4.90                 0         
00000009332104005416               DAYBREAK CARD $20                        17         Z              1          19.2       20.00                0         
00000009332104000299               OPTUS NET 19.95                          17         Z              1          19.14      19.95                0         
00000000000000012410               GOVIA - ACCOUNT TOP-UP $35               26         Z              1          500000     35.00                0         
00000009321670001670               ZERO-OVER-EAR HDPHN - BLU                6          *              1          11.59      19.99                0         
00000009321670001663               INFINITY-IN-EAR HDPHN - BLU              6          *              1          11.59      19.99                0         
00000009321670000062               AERIAL HAT LICENSED GOLD TAG             6          *              1          14.85      26.95                1         
00000009321670010542               AERIAL BEANIE BLK TAG                    6          *              1          11.8       19.95                0         
00000009321670001526               WALL CHRG+CHRG&SYNC CBL - MICRO USB      6          *              1          18.29      29.99                0         
00000009321670001557               CHRG&SYNC CBL - LGHTNG - RED             6          *              1          15.02      24.99                0         
00000009321670003094               PRM POWERBANK 6000MAH - BLU              6          *              1          17.98      29.99                0         
00000009321670000024               AERIAL SUNGLASSES UV400                  6          *              1          9.02       20.95                3         
00000009321670015059               AERIAL SUNGLASSES UV400                  6          *              1          9.02       20.95                3         
00000009321670015066               AERIAL SUNGLASSES UV400                  6          *              1          9.02       20.95                3         
00000009321670015073               AERIAL SUNGLASSES UV400                  6          *              1          9.02       20.95                3         
00000009321670015080               AERIAL SUNGLASSES UV400                  6          *              1          9.02       20.95                3         
00000009321670015097               AERIAL SUNGLASSES UV400                  6          *              1          9.02       20.95                3         
00000009321670015103               AERIAL SUNGLASSES UV400                  6          *              1          9.02       20.95                3         
00000009321670015110               AERIAL SUNGLASSES UV400                  6          *              1          9.02       20.95                3         
00000009321670012973               THONG MALE DBL PLG PLN                   6          *              1          7.44       12.99                6         
00000009335214008384               IGEAR SCR PRTCT-TMPRD GLASS-IPH6+-WHT    6          *              1          4.78       10.00                0         
00000009335214008766               IGEAR EARPH+MIC&VOL CTRL-METALC BLK      6          *              1          7.86       15.00                5         
00000009335214008445               IGEAR SCR PRTCT-TMPRD GLASS-IPH7-WHT     6          *              1          4.94       10.00                0         
00000009335214008469               IGEAR SCR PRTCT-TMPRD GLASS-IPH7+-WHT    6          *              1          4.65       10.00                6         
00000009332104022352               GOCARD TOP UP $60                        26         Z              1          57.59      60.00                0         
00000009326083077519               ISI BLACK DIAMOND 7S $5                  26         Z              50         500000     5.00                 0         
00000009322248001283               ALL NATURAL HONEY OAT SLICE FRT/NUT 100G 18         *              1          1.9        3.99                 0         
00000009322248001313               ALL NATURAL HONEY OAT SLICE FRT/NUT 100G 18         *              1          1.9        3.99                 0         
00000000093222481337               ALL NATURAL HONEY OAT SLICE FRT/NUT 100G 18         *              1          1.9        3.99                 0         
00000009771038874116               THE DAILY TELEGRAPH (CNTRY) - MON        13         *              1          0.89       1.50                 0         
00000009771038874215               THE DAILY TELEGRAPH (CNTRY) - TUE        13         *              1          0.89       1.50                 0         
00000009335214008995               IGEAR PWR BNK 4000MAH-SLV                6          *              1          15.61      30.00                0         
00000009312763000304               BAIT -  WORMS                            6          *              20         66         6.95                 0         
00000009312763000434               BAIT -  WORMS                            6          *              20         66         6.95                 0         
00000009421022720010               NOURISH BEEF JERKY SWEET CHILLI 50GM     18         Z              10         33.54      6.30                 0         
00000009326083079018               ISI CROSSWORD DESERT $5                  26         Z              50         500000     5.00                 0         
00000009300830040834               STR GOLDEN GAYTIME CAPPUCCCINO 105ML     15         *              20         32.59      3.95                 0         
00000009313820001098               MOUNTAIN DEW KS LIMEADE 355ML            11         *              24         36.63      2447205090542342900000.00 0         
00000009326083031825               ISI DINER DOLLARS $2                     26         Z              100        184        2.00                 0         
00000009342866000659               MONSTER ENERGY GREEN   250ML             11         *              24         229.77     1767425992550017700000.00 0         
00000009346473008053               F/O PORTUGUESE CHICKEN 350GM             2          *              5          34.4       9.95                 0         
00000000000000097358               BUNCH OF  FLOWERS                        6          Z              1          10         20.00                0         
00000000000000097944               XPRESS MONEY - CONFIRM CANCEL TRANSACT   26         Z              1          500000     0.00                 0         
00000009310045404109    064070     PINE-O-CLEEN PINE        500ML           1          *              8          16.89      5.20                 4         
00000000000050357499    064494     F/MAN FRIEND MINT S/STRNG#25GM           10         *              12         19.36      3.20                 14        
00000009310179005142    065474     G/CIRC DRK ORANGE      6X250ML           11         *              4          16.78      6503630770437177200000.00 0         
00000009310704052405    DELETE     LONGBEACH FILTER RED       40S           7          *              4          188.71     66.90                3         
00000000000093305495    DELETE     LONGBEACH FILTER RED       40S           7          *              4          188.71     66.90                3         
00000005020480012077    067272     BATISTE S/POO DRY BLUSH  #50ML           50         *              6          19.79      5.80                 0         
00000005010724527399    067272     BATISTE S/POO DRY BLUSH  #50ML           50         *              6          19.79      5.80                 0         
00000009300605060944    069334     L/SAVER B/CURR PASTILLES  34GM           10         *              24         15.57      1.60                 24        
00000009310063171502    DELETE     SCOTCHBRITE SCOURERS      SNGL           6          *              24         31.86      2.40                 0         
00000009310692037156    DELETE     NAT/ORG S/POO JUICY FRT  500ML           50         *              4          6.44       3.30                 0         
00000009310093004443    077992     G/VAL APRICOT HALVES     700GM           1          Z              6          22.55      7.00                 7         
00000008710900861183    079978     DRUM SMOOTH YELLOW        50GM           7          *              10         888.07     113.10               0         
00000008710900061187    079978     DRUM SMOOTH YELLOW        50GM           7          *              10         888.07     113.10               0         
00000003086127501115    080458     BIC SHVR TWN EASY SEN POUCH10S           50         *              10         34.36      4.76                 0         
00000009300663465354    DELETE     LYNX DEOD BDY/SPRY EXCITE100G            50         *              6          27.75      8.95                 0         
00000004987176008732    083613     VICKS VAPODROPS BUTT/MENT  24S           50         *              4          12.75      6.90                 4         
00000009300607090567    084570     LISTERINE ZERO CLN MINT  250ML           50         *              6          24.3       7.20                 0         
00000009315596001197    DELETE     SOLO LEMON/LIME          600ML           11         *              24         53.16      3980415895708912100000.00 0         
00000009310077304057    094554     B/GOLD PLASTIC CUPS 275ML 25PK           6          *              10         15.59      4.00                 10        
00000009300632016761    098419     PALM S/WSH SEA MINERL PMP250ML           50         *              6          13.13      4.50                 0         
00000009300658406959    101631     D/FARM YGT T/CRMY VANILLA150GM           2          Z              10         15.44      3.00                 0         
00000009310386001555    102674     MCC REDBOX RST LAMB      320GM           3          *              10         54.25      10.95                0         
00000009300605098909    103748     MUSASHI P45 BAR CKIES&CRM 90GM           1          *              12         44.09      5.90                 24        
00000009310081408284    106034     B/EYE PEAS               500GM           3          Z              24         39.99      3.70                 0         
00000009310081407409    106034     B/EYE PEAS               500GM           3          Z              24         39.99      3.70                 0         
00000009300605039032    106238     LEAN CUIS BWL LAMB H/POT 290GM           3          *              6          26.4       8.95                 0         
00000009310135020110    DELETE     S/LEE CH/CAKE ORIGINAL   500GM           3          *              6          31.65      8.60                 0         
00000009310174093823    109773     MCC REDBOX LMB CUTLET/GRVY320G           3          *              10         60.86      10.95                0         
00000009310002011043    109773     MCC REDBOX LMB CUTLET/GRVY320G           3          *              10         60.86      10.95                0         
00000009310199028701               D/FARM CREAM THICK          2L           2          Z              6          46.11      0.00                 0         
00000009310077202322    113015     B/GOLD CHEESE CAKE       450GM           3          *              12         27.45      5.45                 0         
00000009310199025700               D/FARM CREAM FRESH          2L           2          Z              9          8.42       0.00                 0         
00000009311008051149    115994     PATTIES PASTIES PARTY12S 500GM           3          *              6          32.99      7.56                 0         
00000009310541000980    116681     WEIS SORBET LEMON 1L                     15         *              6          29.52      8.50                 0         
00000000000093231251    117988     LATINA F/PSTA RAV MEAT   375GM           2          Z              6          26.3       7.60                 0         
00000009310077203763    118099     B/GOLD CREAM THICKENED   300ML           2          Z              12         22.61      3.50                 0         
00000009310764297488    349365     WINFIELD BLUE RYO         50GM           7          *              5          367.05     113.40               0         
00000000793573607027    DELETE     DR PROCTOR BILTONG BEEF   30GM           18         Z              12         30.54      5.00                 0         
00000000793573607003    DELETE     DR PROCTOR BILTONG CHILLI 30GM           18         Z              12         30.54      5.25                 0         
00000000071737493076    356029     CAPTAIN BLK CIGAR CHERISE  20S           7          *              10         293.35     43.90                10        
00000000071737040614    356029     CAPTAIN BLK CIGAR CHERISE  20S           7          *              10         293.35     43.90                10        
00000000000093372091    356613     VASELINE I/C LOTION DRY  #35ML           50         *              6          12.56      3.95                 0         
00000009310004342329    360361     LIBRA PADS U/THN SUP WING  12S           50         Z              6          22.69      8.60                 4         
00000009325344001768    360361     LIBRA PADS U/THN SUP WING  12S           50         Z              6          22.69      8.60                 4         
00000009327329010130    368534     JPS RED                    40S           7          *              4          183.49     65.60                0         
00000009329000010163               JCS SOUR COMBO MIX    175GM              18         *              12         31.31      4.70                 0         
00000000000000096261               FCB CUPS 750ML                           14         *              100        127.25     0.01                 0         
00000000000000096297               FROSTBITE TOWER 750ML                    14         *              1          500000     4.00                 0         
00000000000000096304               FROSTBITE TOWER REFILL 750ML             14         *              1          0          2.00                 0         
00000009335214007189               IGEAR CBL/CHRG LED LIGHT UP-1M-WHT-IPH   6          *              1          6.78       15.00                0         
00000009335214007318               IGEAR CBL/CHRG LED LIGHT UP-1M-BLK-IPH   6          *              1          6.78       15.00                0         
00000009335214002337               IGEAR CBL/CHRG-1M-FLAT PK3-3ASST COL     6          *              1          2.48       5.00                 0         
00000009335214002344               IGEAR CBL/CHRG-PK3-1M-FLAT-PNK/GRN/ORNG  6          *              1          2.48       5.00                 2         
00000009335214002177               IGEAR CHRGR AUTO DUAL USB+3 IN 1 CBL-WHT 6          *              1          10.18      20.00                0         
00000009335214004515               IGEAR EARPH ZPPR METALC+MIC-RED          6          *              1          7.86       15.00                0         
00000000072225213009               CLIFF BAR                                18         *              12         500000     3.95                 0         
00000000722252102607               CLIFF BAR                                18         *              12         500000     3.95                 0         
00000009335214001675               IGEAR PH/CSE-WLLT/STYL FX/LTHR-BLK-IPH6+ 6          *              1          8.8        0.00                 0         
00000009326083029020               ISI COFFEE CROSSWORDS $5                 26         Z              50         500000     5.00                 0         
00000009326083026340               ISI TOMBS OF RICHES $4                   26         Z              50         0          4.00                 0         
00000009344286000073               AMAYSIM $29.90 UNLIMITED 3GB             17         Z              1          28.7       29.90                0         
00000000000000098056               AGAS 4KG SWAP                            6          *              1          17.25      25.00                0         
00000009326083027613               ISI RIDE TO RICHES $5                    26         Z              50         230        5.00                 0         
00000009338308001582               JIMS JERKY CHILLI 50GM                   18         Z              10         41         6.90                 0         
00000009342016002304               LEBARA DATA PACK $25                     17         Z              1          27.89      25.00                0         
00000009326083011230               ISI 500 $1                               26         Z              200        500000     1.00                 0         
00000009326083021963               ISI LUCKY CHERRIES $2                    26         Z              100        500000     2.00                 0         
00000000076840438372               BNJ HAZED & CONFUSED 458ML               15         *              8          500000     13.95                0         
00000009300614000603    064130     COTT CORD COOLA             1L           1          *              9          43.15      9.30                 6         
00000000000093451642               MARLBORO MENTHOL FLIP      20S           7          *              10         235.77     38.40                0         
00000009310704637107               MARLBORO MENTHOL FLIP      20S           7          *              10         235.77     38.40                0         
00000009334714000157    070851     COBS POPCORN SALTD&SWEET 120GM           18         *              12         26.86      4.00                 12        
00000009300462341149    071360     J/WEST HERRING FLT/TOMAT 200GM           1          Z              9          25.86      5.20                 5         
00000005000171002082    071360     J/WEST HERRING FLT/TOMAT 200GM           1          Z              9          25.86      5.20                 5         
00000009421013440309    DELETE     JACK LINKS BF JERKY ORIG #25GM           18         Z              10         25.5       4.55                 1         
00000009310077278495    DELETE     B/GOLD COTTON PADS MKE-UP  80S           50         *              24         30.2       1.62                 0         
00000001338845877814    DELETE     B/GOLD COTTON PADS MKE-UP  80S           50         *              24         30.2       1.62                 0         
00000009310022044007    074075     CHUM BEEF                1.2KG           1          *              12         29.54      4.50                 3         
00000000000093305174    074180     GREENSEAS TUNA TOM&ONION  95GM           1          Z              12         17.39      2.80                 11        
00000009313501031956    075225     BLISTEX COND BALM SPF20 #4.25G           50         *              6          15.77      5.00                 0         
00000009310704907354    076527     CHOICE ORIGINAL RYO       25GM           7          *              5          197.21     50.40                4         
00000008710900061002    080694     DRUM ORIGINAL             50GM           7          *              10         888.07     79.35                0         
00000000000093632386    080872     PALM H/SANITISER FIG&C/NUT48ML           50         *              8          19.9       4.00                 0         
00000009310797051101    080937     PORT ROYAL RYO RUM&WINE   50GM           7          *              5          454.33     88.45                0         
00000000000093219525               MARLBORO SILVER            25S           7          *              8          264.01     47.80                0         
00000009300830021413    085547     LUX B/WASH EVENLY GORG   400ML           50         *              6          24.51      6.58                 0         
00000009310988012133    088930     KETTLE NAT SEA SALT      185GM           18         *              12         38.56      6.25                 0         
00000009310988012140    088948     KETTLE NAT S/SLT&VIN     185GM           18         *              12         38.56      6.25                 0         
00000009310988012164    DELETE     KETTLE NAT HNY BKD HAM   185GM           18         *              12         38.56      6.25                 0         
00000009310015236068    090424     SMITHS CRINK ORIG         20PK           18         *              6          41.13      9.60                 0         
00000009300605229020    092659     W/WONKA NERDS NEON        45GM           10         *              24         19.51      3.50                 1         
00000009300605247895    092659     W/WONKA NERDS NEON        45GM           10         *              24         19.51      3.50                 1         
00000009300607516364    095966     CAREFREE TAMP PROCMFRT MINI16S           50         Z              12         40.9       5.17                 0         
00000009325005002684    096899     VILEDA SCOURER 3 IN 1      2PK           6          *              12         19.03      2.95                 0         
00000000000093613378    099850     WRIG EXTRA ACTIVE PEPRMNT 14PC           10         *              24         37.2       2.90                 43        
00000009354107000069               F/O PORTUGUESE CHICKEN 350GM             2          *              5          34.4       9.95                 0         
00000000735850316543               Y/FDZ HOMESTYLE HAM CHEESE TOMATO S/WICH 2          *              1          4.9        6.95                 0         
00000009310795003300               NATIONAL PIES LITTLE BEEF 12 PACK 720G   2          *              1          7.92       12.50                0         
00000000000000021548               KEPPEL CRUMBED SAUSAGES 76GM             9          *              53         40.25      2.00                 61        
00000009321463000894               KEPPEL CRUMBED SAUSAGES 76GM             9          *              53         40.25      2.00                 61        
00000009326083070503               ISI RENO RICHES $1                       26         Z              200        200        1.00                 0         
00000009347042002700               CONN MINI VANILLA 50GM                   15         *              24         33.25      2.00                 0         
00000000076750189517               VODAFONE STARTER KIT $50                 6          *              1          40         50.00                0         
00000000703625380914               Y/FDZ TURKISH DELIGHT PROT BALL 2PK 80GM 18         *              1          3.48       5.00                 0         
00000009415748011866               CERES ORG ROASTED S/WEED NORI SNAK #11GM 18         *              8          20.42      3.99                 0         
00000000735850995816               Y/FDZ EGG WHT OMELETTE & POT SMASH 280GM 2          *              1          6.3        9.95                 0         
00000009300830045129               BLUE RIBBON 356CAL RASPBERRY FUDGE 460ML 15         *              8          36.04      8.00                 0         
00000009347042002748               FROSTY FRUIT WATERMELON SLICE 75ML       15         *              30         39.72      2.30                 0         
00000009326083077588               ISI LUXE RICHES $5                       26         Z              50         230        5.00                 0         
00000009326083031849               ISI SUSHI BUCKS $2                       26         Z              100        186        2.00                 0         
00000009335214009688               IGEAR BT EARPHONE MAG MIC VOL BLACK      6          *              1          13.14      25.00                4         
00000000000000021711               TIGER CHAI LATTE MIX 500GR               16         *              1          9.68       0.01                 0         
00000009312763000151               BAIT - MULIES 1KG                        6          *              14         67.76      8.95                 0         
00000009312763000038               BAIT - OCTOPUS 200GM                     6          *              20         58.29      5.50                 0         
00000000793591168128               Y/FDZ SWEET CHILLI SCHNITTY WRAP 200G    2          *              1          6.3        8.95                 0         
00000009354849001331               Y/FDZ MOROCCAN CHICKEN & VEG 270G        2          *              1          7          9.95                 0         
00000000793591168180               Y/FDZ MOROCCAN CHICKEN & VEG 270G        2          *              1          7          9.95                 0         
00000009300652809244               SANIT UP&GO MINT CHOC 500ML              11         *              12         39.66      4903059907119004300000.00 0         
00000000000000287401               SAT LOTTO                                26         *              1          0          1.00                 0         
00000000222202874016               SAT LOTTO                                26         *              1          0          1.00                 0         
00000000222200287401               SAT LOTTO                                26         *              1          0          1.00                 0         
00000022229980287401               SAT LOTTO                                26         *              1          0          1.00                 0         
00000028740101011808               SAT LOTTO                                26         *              1          0          1.00                 0         
00000000022220287401               SAT LOTTO                                26         *              1          0          1.00                 0         
00000009315596006963               SOLO ZERO SUGAR  10X375ML                11         *              10         9.69       1438659982789739300000.00 0         
00000009339562010938               FGR SEAFOOD SALAD 400G                   2          Z              6          40.5       9.95                 0         
00000000000000021792               FCB SYRUP BIB 5L                         14         *              1          46.04      1.00                 0         
00000009349584000534               BRAKE AND CLUTCH DOT4_24 500ML           6          *              24         116.81     9.00                 0         
00000000887961560107               HOT WHEELS M/JAM MIGHT MINI              6          *              1          2.64       2.99                 0         
00000000797776140626               Y/KARMA BUTTER CHICKEN & RICE 360G       2          *              6          32.4       8.50                 0         
00000009354849000273               Y/FDZ CURRIED BANGERS & PUMP MASH 305G   2          *              1          7          9.95                 0         
00000009354849000297               Y/FDZ SLOW COOKED BBQ BEEF & MASH 295G   2          *              1          7          9.95                 0         
00000009770312632015               THE WEST AUSTRALIAN - MONDAY             13         *              1          1.52       1.70                 0         
00000009300830053186               BLUE RIBBON CHOC PROTEIN BAR 67ML        15         *              25         58.88      4.70                 22        
00000009354849000044               Y/FDZ JUICE SWEET RELIEF 300ML           2          Z              8          26.45      4.95                 0         
00000009335214009633               IGEAR CHRGR INBOUND TRAVEL ADAPTOR WHITE 6          *              1          6.4        15.00                2         
00000000002999999998               NOOSAVILE $10 VOUCHER                    26         *              1          10         10.00                0         
00000009327303116421               D SHACKLE 10MM                           6          *              1          3.07       6.50                 0         
00000009310015247378               SMITHS CRINKL S/FRIED CHICKEN 45GM       18         *              15         15.43      2.20                 0         
00000009421029871111               OLLEE ULTRA TAB 7"                       6          *              1          84.15      99.00                0         
00000009354849000976               Y/FDZ KOMBUCHA S/BERRY LIME 300ML        2          Z              8          25.73      4.95                 0         
00000008711327377257               STR CORNETTO VEGAN 90ML                  15         *              24         52.04      4.70                 30        
00000009317493104100               OPTUS X VIEW 4G SMART PHONE $149         6          *              1          67.94      149.99               0         
00000009354849001126               Y/FDZ SOUTHERN SPICED CHICKEN WRAP 215G  2          *              1          6.3        8.95                 0         
00000000007675022369               OPTUS $30 VOICE SIM                      6          *              5          0          30.00                0         
00000009317495101190               OPTUS $30 VOICE SIM                      6          *              5          0          30.00                0         
00000009317495001162               OPTUS $30 VOICE SIM                      6          *              5          0          30.00                0         
00000009329000012808               JCS MIXED BERRY NUT CRUNCH 200GM         18         Z              24         24         5.00                 0         
00000009327329010154    368542     JPS BLUE                   40S           7          *              4          183.49     68.10                5         
00000009327329010192    368568     JPS MENTHOL                40S           7          *              4          183.49     65.60                0         
00000009310022047503    373877     CHUM 3 MEATS             1.2KG           1          *              12         33.66      4.50                 7         
00000009300632011001    376354     SAVLON ANTISEPTIC CREAM   30GM           50         *              6          21.88      6.95                 0         
00000009300711023901    376354     SAVLON ANTISEPTIC CREAM   30GM           50         *              6          21.88      6.95                 0         
00000009310021041540    376859     LIPTONICE TEA MANGO       1.5L           11         *              6          21.67      4694184082301467500000.00 0         
00000009300644700702    379108     CAMP SOUP CHNKY BEEF     505GM           1          Z              12         37.61      5.00                 9         
00000009310015332098    379598     NOBBYS MXD NUTS          500GM           18         *              12         84.87      10.90                0         
00000009300830007783    DELETE     LYNX DEOD BDY/SPRY APOLLO 100G           50         *              6          28.37      6.52                 0         
00000009310797280228    380939     WINFIELD OPTM CRUSH GOLD   20S           7          *              10         252.33     36.95                0         
00000009310797279369    381105     WINFIELD OPTM CRUSH SKY    20S           7          *              10         252.33     36.70                0         
00000009300830007936    DELETE     REXONA AP AERO WMN FRAG DEL90G           50         *              6          22.77      6.95                 0         
00000009300632001248    381600     COLG T/BRUSH+TWST ADLT MED SNG           50         *              8          16.7       4.60                 6         
00000009310015224096    382240     DORITOS SALSA HOT        300GM           18         Z              8          17.31      4.00                 0         
00000009310015250149    382240     DORITOS SALSA HOT        300GM           18         Z              8          17.31      4.00                 0         
00000009317296339891    385324     PROTEIN FX L/C CARAMEL 30GM              18         *              12         18.45      2.80                 0         
00000009300701846367    DELETE     FABULON CITRUS AERO      385GM           1          *              6          23.45      6.60                 3         
00000009311493002336    390455     B/BERG LEM/LME BITTERS   375ML           11         *              12         18.25      2255630969593256700000.00 0         
00000009311493003401    390455     B/BERG LEM/LME BITTERS   375ML           11         *              12         18.25      2255630969593256700000.00 0         
00000009311493003418    390455     B/BERG LEM/LME BITTERS   375ML           11         *              12         18.25      2255630969593256700000.00 0         
00000009311493003357    390455     B/BERG LEM/LME BITTERS   375ML           11         *              12         18.25      2255630969593256700000.00 0         
00000009311493003500    390455     B/BERG LEM/LME BITTERS   375ML           11         *              12         18.25      2255630969593256700000.00 0         
00000008720400075836    390463     HW CAFE CREME BLUE CIGARS  10S           7          *              10         178.22     23.90                0         
00000008720400000425    390463     HW CAFE CREME BLUE CIGARS  10S           7          *              10         178.22     23.90                0         
00000004902430377409    390793     A/FRESH AMBI PUR MINI SKY BREEZE 2ML     6          *              6          29.01      9.90                 0         
00000000000093513197    391736     NUTELLA & GO PRETZEL      50GM           10         *              24         43.7       3.50                 17        
00000009310797281898    392009     WINFIELD RED RYO          20GM           7          *              5          95.2       39.00                0         
00000009310797281911    392033     WINFIELD BLUE RYO         20GM           7          *              5          95.2       43.80                0         
00000009333583005157    392075     MILTON ANTI-BACTERIAL TAB  30S           50         *              6          34.9       9.95                 5         
00000009314949270037    392075     MILTON ANTI-BACTERIAL TAB  30S           50         *              6          34.9       9.95                 5         
00000009327329013803    680606     JPS + CRUSHBALL BLUE HLF   20S           7          *              4          95.16      35.00                0         
00000008901682000758    680606     JPS + CRUSHBALL BLUE HLF   20S           7          *              4          95.16      35.00                0         
00000009327329013810    680648     JPS + CRUSHBALL GOLD HLF   20S           7          *              4          95.16      33.80                0         
00000009300624031680               MT/FRANK S/KIDS L/LME PET250ML           11         *              24         23.55      979672930893523840000000000.00 0         
00000009300830051823    688777     LYNX B/WSH XBOX          400ML           50         *              6          28.23      7.90                 0         
00000009421013441504    689309     JACK LINKS BEEF JERKY BBQ#50GM           18         Z              10         29.39      6.00                 0         
00000000000054507852    696314     REEF BREEZE MENTHOL        20S           7          *              10         212.02     30.40                0         
00000009300673819727    698861     ZOVIRAX COLD SORE CRM TUBE 2GM           50         *              6          79.09      21.00                7         
00000009300673896056    698861     ZOVIRAX COLD SORE CRM TUBE 2GM           50         *              6          79.09      21.00                7         
00000009353333000980    700702     MYMSC S/FRY SEITAN RC&VG 350GM           2          *              1          7.5        10.95                0         
00000009369998007448               SHINE+BLACK WILD TROP    400ML           11         *              12         44.24      5114409896981827700000.00 0         
00000009369998005659               SHINE+CLEAR WILD TROP    400ML           11         *              12         44.24      5179917005361745200000.00 0         
00000006920403163734    706591     EVEREADY GOLD AA    A91    4PK           6          *              12         60.34      9.20                 0         
00000006920403161761    706591     EVEREADY GOLD AA    A91    4PK           6          *              12         60.34      9.20                 0         
00000006920403161822    706648     EVEREADY GOLD AAA   A92    4PK           6          *              20         103.37     9.50                 0         
00000008888021201505    DELETE     EVEREADY GOLD C     A93    2PK           6          *              6          24.43      7.95                 0         
00000009350938000063    711017     WILD SPIRIT SHIFT BLUE  200X20           7          *              10         172.57     258.50               0         
00000009329000012716               JCS ORIGINAL BACKYARD BBQ MIX 150GM      18         Z              24         24         5.00                 24        
00000009300624033448               MT/FRANK SPR/WTR NAT STIL 1.5L 2X4       11         Z              2          23.1       17130429722821889000000.00 2         
00000000000000023460               V UGLY                                   6          Z              1          1          1.00                 0         
00000009300662092742               BROWNES WHIPPING CREAM 300ML             2          Z              1          1.96       3.40                 0         
00000006933192480807               IGEAR ALKALINE BATT DISP 48XAA | 48XAAA  6          *              1          1.25       30.00                0         
00000000000000023506               N/OWL FRESH FRUIT TUB GREEN GRAPES EA    4          Z              1          2.5        5.00                 7         
00000000000000023508               N/OWL FRESH FRUIT TUB PINEAPPLE EA       4          Z              1          2          4.00                 4         
00000009300830058976               STREETS FEAST CHOCOLATE 94ML             15         *              20         45.22      3.70                 18        
00000005034709001414               BURTS CHIPS CHEDDAR & ONION 150GM        18         *              10         36.5       6.00                 9         
00000000072600075498               HERRS CAROLINA REAPER 184GM              18         *              1          4.17       7.90                 0         
00000009354849001881               Y/FDZ CHARGRILLED CHICKEN CHIP MAY 326GM 2          *              1          7          9.95                 0         
00000009328892000252               B/T ADULT OFF PEAK ALL ZONE              26         Z              1          4.34       0.00                 0         
00000009337694004450               DIGICEL TOP UP $10                       17         Z              1          0          10.00                0         
00000009337694004474               DIGICEL TOP UP $50                       17         Z              1          0          50.00                0         
00000000000000029405               FCB CUPS 1000 ML                         14         *              750        127.25     0.30                 1025      
00000000000000029432               TEA                                      16         *              1          0.25       2.00                 0         
00000000000000056435               TEA                                      16         *              1          0.25       2.00                 0         
00000009332104022161               GOCARD TERTIARY STUDENT $5               26         Z              1          4.8        5.00                 0         
00000009332104022390               GOCARD TOP UP $100                       26         Z              1          96         100.00               0         
00000000076840336043               BNJ COOKIE CARNIVAL 120ML                15         *              12         34.31      4.80                 0         
00000000076840000616               BNJ CHOCOLATE FOR NUTS 120ML             15         *              12         34.31      4.20                 3         
00000009347042000874               CONN HNY MACCADAMIA PET 470ML            15         *              6          30.37      8.50                 0         
00000009329000006791               JCS SNFLWR KRNL    150GM                 18         Z              12         15.55      2.70                 8         
00000000000000087689               CARING CARD COMMISSIONED                 26         Z              1          500000     4.95                 0         
00000009316423024228               TELSTRA PRE-PAID $15                     17         Z              1          14.39      15.00                0         
00000009317494000067               OPTUS $60                                17         Z              1          57.59      60.00                0         
00000009337694007116               Xbox360 Live Gold 1 Month ESD AUS        26         Z              1          500000     11.00                0         
00000009310179005159               G/CIRC DRK TROP PUNCH 250ML              11         *              6          3.52       872589105195403710000.00 0         
00000009347457000315               JTS WATER COCONUT SUMMER BERRI 1L        11         Z              6          21.54      5326996124942364300000.00 0         
00000000000000096143               SWAP N GAS 8.5KG SWAP                    6          *              1          22.1       29.00                0         
00000000000000064723               SWAP N GAS 8.5KG SWAP                    6          *              1          22.1       29.00                0         
00000009314063800011               TRIDON FUEL CAP TUEC1                    6          *              1          2.14       6.90                 0         
00000009312550701001               TRIDON FUEL CAP TUEC1                    6          *              1          2.14       6.90                 0         
00000009316423024709               TELSTRA PRE PAID $25                     17         Z              1          24         25.00                0         
00000009326083026333               ISI TEMPLES OF CASH $4                   26         Z              50         0          4.00                 0         
00000009335214006571               IGEAR CBL CHRG SPC-1M-LME-IPH            6          *              1          6.21       15.00                0         
00000009335214006595               IGEAR CBL CHRG SPC-1M-PNK-IPH            6          *              1          6.21       15.00                0         
00000009335214002306               IGEAR CBL/CHRG-1M-FLAT-ASST COL-IPH 4    6          *              1          2.56       5.00                 0         
00000009335214003648               IGEAR CHRGR AUTO DUAL USB+CBL-BLK-IPH    6          *              1          9.4        20.00                1         
00000009335214002320               IGEAR CHRGR AUTO DUAL USB+3 IN 1 CBL-BLK 6          *              1          10.18      20.00                0         
00000009335214003747               IGEAR CHRGR WALL 240V+CBL-WHT-IPH        6          *              1          10.34      20.00                0         
00000009335214004096               IGEAR CHRGR WALL 240V 4 USB-WHT          6          *              1          12.93      0.00                 2         
00000009335214005239               IGEAR EARPH MIC VOL CTRL WHITE           6          *              1          5.23       10.00                0         
00000009335214006298               IGEAR HEADPH+MIC/VOL CTRL-BLK            6          *              1          10.06      20.00                0         
00000009335214002290               IGEAR HEADSPLITTER - WHT                 6          *              1          500000     5.00                 0         
00000009335214007691               IGEAR SCR PRTCT-IPH6+                    6          *              1          0.86       2.00                 0         
00000009335214007714               IGEAR PH/CS-WLLT/STYL SUED-DRK GRY-IPH6+ 6          *              1          10.3       20.00                0         
00000009335214001644               IGEAR PH/CSE-TPU-BLK-IPH6                6          *              1          2.39       5.00                 0         
00000009329000003141               JCS CASHEWS SALTED 375GM                 18         *              24         220.32     15.50                0         
00000009317495000752               OPTUS  SIM $2                            6          *              1          0          2.00                 0         
00000009326083027583               ISI 10X THE CASH $5                      26         Z              50         0          5.00                 0         
00000009326083027606               ISI 10X THE CASH $5                      26         Z              50         0          5.00                 0         
00000009329000006753               JCS PORK CRACKLE    75GM                 18         *              24         71.04      5.50                 0         
00000009310047010117    100119     MEADOW LEA SPRD          500GM           2          Z              12         33.25      4.90                 0         
00000009300650430419    101018     PHILLY REG BLOCK         250GM           2          Z              24         73.23      5.20                 0         
00000009354237000311    101050     FLORA SPRD ORIG          500GM           2          Z              16         44.22      4.90                 0         
00000009310003002002    101050     FLORA SPRD ORIG          500GM           2          Z              16         44.22      4.90                 0         
00000009311594022110    102378     PRIMO BACON PIECES TWN   300GM           2          Z              6          20.47      6.50                 0         
00000009310080107904    103502     PETERS I/CRM L&C R/BRY RIP1.8L           15         *              6          30.19      8.50                 0         
00000009300657784928    103777     W/WATCHER COTTAGE PIE    320GM           3          *              10         38.34      9.95                 0         
00000000000093247931    103934     MUSASHI P8 BAR CHC FUDGE #30GM           18         *              12         16.54      3.80                 0         
00000009310052751203    106149     BEGA CHSE SUPER SLICES   250GM           2          Z              24         62.97      4.25                 0         
00000009310081409250    106929     B/EYE C/HRV MIX VEG      500GM           3          Z              12         27.8       4.20                 0         
00000009310114022968    DELETE     4N20 PIE MEAT 6S      1.05KG             3          *              8          63.15      9.95                 0         
00000009310354980516    107679     JALNA YGT GREEK            1KG           2          Z              6          32.43      7.44                 0         
00000009310139128140    107721     I&J FISH LITE/CRISPY CRMB425GM           3          Z              12         69         7.83                 0         
00000009310002010800    110889     PAMPAS PASTRY FILLO      375GM           3          Z              12         35.52      4.38                 0         
00000009328736002978    111623     ICE POLAR                  4KG           3          *              4          5.75       4.00                 0         
00000009335009000005    111623     ICE POLAR                  4KG           3          *              4          5.75       4.00                 0         
00000009324253000046    111623     ICE POLAR                  4KG           3          *              4          5.75       4.00                 0         
00000000000001111623    111623     ICE POLAR                  4KG           3          *              4          5.75       4.00                 0         
